{"contracts/Marketplace.sol":{"Marketplace":{"abi":[{"inputs":[{"internalType":"uint96","name":"_platformFee","type":"uint96"}],"stateMutability":"nonpayable","type":"constructor"},{"anonymous":false,"inputs":[{"indexed":true,"internalType":"uint256","name":"itemId","type":"uint256"},{"indexed":true,"internalType":"address","name":"nftContract","type":"address"},{"indexed":true,"internalType":"uint256","name":"tokenId","type":"uint256"},{"indexed":false,"internalType":"string","name":"metaDataURI","type":"string"},{"indexed":false,"internalType":"address","name":"seller","type":"address"},{"indexed":false,"internalType":"address","name":"owner","type":"address"},{"indexed":false,"internalType":"uint256","name":"price","type":"uint256"},{"indexed":false,"internalType":"bool","name":"forSale","type":"bool"},{"indexed":false,"internalType":"string","name":"activity","type":"string"}],"name":"MarketplaceItem","type":"event"},{"anonymous":false,"inputs":[{"indexed":true,"internalType":"bytes32","name":"role","type":"bytes32"},{"indexed":true,"internalType":"bytes32","name":"previousAdminRole","type":"bytes32"},{"indexed":true,"internalType":"bytes32","name":"newAdminRole","type":"bytes32"}],"name":"RoleAdminChanged","type":"event"},{"anonymous":false,"inputs":[{"indexed":true,"internalType":"bytes32","name":"role","type":"bytes32"},{"indexed":true,"internalType":"address","name":"account","type":"address"},{"indexed":true,"internalType":"address","name":"sender","type":"address"}],"name":"RoleGranted","type":"event"},{"anonymous":false,"inputs":[{"indexed":true,"internalType":"bytes32","name":"role","type":"bytes32"},{"indexed":true,"internalType":"address","name":"account","type":"address"},{"indexed":true,"internalType":"address","name":"sender","type":"address"}],"name":"RoleRevoked","type":"event"},{"inputs":[],"name":"DEFAULT_ADMIN_ROLE","outputs":[{"internalType":"bytes32","name":"","type":"bytes32"}],"stateMutability":"view","type":"function"},{"inputs":[],"name":"MARKETPLACE_ADMIN_ROLE","outputs":[{"internalType":"bytes32","name":"","type":"bytes32"}],"stateMutability":"view","type":"function"},{"inputs":[{"internalType":"uint96","name":"newPlatformFee","type":"uint96"},{"internalType":"address","name":"newPayoutAddress","type":"address"}],"name":"changeFeeAndPayoutAddress","outputs":[],"stateMutability":"nonpayable","type":"function"},{"inputs":[{"internalType":"address","name":"nftContract","type":"address"},{"internalType":"uint256","name":"tokenId","type":"uint256"},{"internalType":"uint256","name":"price","type":"uint256"}],"name":"createMarketItem","outputs":[{"internalType":"uint256","name":"","type":"uint256"}],"stateMutability":"nonpayable","type":"function"},{"inputs":[{"internalType":"uint256","name":"itemId","type":"uint256"}],"name":"createMarketSale","outputs":[],"stateMutability":"payable","type":"function"},{"inputs":[{"internalType":"bytes32","name":"role","type":"bytes32"}],"name":"getRoleAdmin","outputs":[{"internalType":"bytes32","name":"","type":"bytes32"}],"stateMutability":"view","type":"function"},{"inputs":[{"internalType":"bytes32","name":"role","type":"bytes32"},{"internalType":"uint256","name":"index","type":"uint256"}],"name":"getRoleMember","outputs":[{"internalType":"address","name":"","type":"address"}],"stateMutability":"view","type":"function"},{"inputs":[{"internalType":"bytes32","name":"role","type":"bytes32"}],"name":"getRoleMemberCount","outputs":[{"internalType":"uint256","name":"","type":"uint256"}],"stateMutability":"view","type":"function"},{"inputs":[{"internalType":"bytes32","name":"role","type":"bytes32"},{"internalType":"address","name":"account","type":"address"}],"name":"grantRole","outputs":[],"stateMutability":"nonpayable","type":"function"},{"inputs":[{"internalType":"bytes32","name":"role","type":"bytes32"},{"internalType":"address","name":"account","type":"address"}],"name":"hasRole","outputs":[{"internalType":"bool","name":"","type":"bool"}],"stateMutability":"view","type":"function"},{"inputs":[{"internalType":"uint256","name":"","type":"uint256"}],"name":"idToMarketItem","outputs":[{"internalType":"uint256","name":"itemId","type":"uint256"},{"internalType":"address","name":"nftContract","type":"address"},{"internalType":"uint256","name":"tokenId","type":"uint256"},{"internalType":"address payable","name":"seller","type":"address"},{"internalType":"address payable","name":"owner","type":"address"},{"internalType":"uint256","name":"price","type":"uint256"},{"internalType":"bool","name":"forSale","type":"bool"},{"internalType":"bool","name":"deleted","type":"bool"}],"stateMutability":"view","type":"function"},{"inputs":[],"name":"payoutAddress","outputs":[{"internalType":"address","name":"","type":"address"}],"stateMutability":"view","type":"function"},{"inputs":[],"name":"platformFeeBasisPoint","outputs":[{"internalType":"uint96","name":"","type":"uint96"}],"stateMutability":"view","type":"function"},{"inputs":[{"internalType":"uint256","name":"itemId","type":"uint256"}],"name":"removeFromSale","outputs":[],"stateMutability":"nonpayable","type":"function"},{"inputs":[{"internalType":"bytes32","name":"role","type":"bytes32"},{"internalType":"address","name":"account","type":"address"}],"name":"renounceRole","outputs":[],"stateMutability":"nonpayable","type":"function"},{"inputs":[{"internalType":"bytes32","name":"role","type":"bytes32"},{"internalType":"address","name":"account","type":"address"}],"name":"revokeRole","outputs":[],"stateMutability":"nonpayable","type":"function"},{"inputs":[{"internalType":"bytes4","name":"interfaceId","type":"bytes4"}],"name":"supportsInterface","outputs":[{"internalType":"bool","name":"","type":"bool"}],"stateMutability":"view","type":"function"}],"evm":{"bytecode":{"linkReferences":{},"object":"60806040523480156200001157600080fd5b5060405162001d0f38038062001d0f833981016040819052620000349162000290565b6001600255620000657f4e9617a5e2ee64b49ea666eb545a00a6f26df1c8ca519835eb93aac8d788949233620000e0565b620000917f4e9617a5e2ee64b49ea666eb545a00a6f26df1c8ca519835eb93aac8d788949280620000f0565b600580546001600160a01b0316600160a01b6001600160601b03841602179055620000b93390565b600580546001600160a01b0319166001600160a01b039290921691909117905550620002c2565b620000ec82826200013b565b5050565b600082815260208190526040808220600101805490849055905190918391839186917fbd79b86ffe0ab8e8776151514217cd7cacd52c909f66475c3af44e129f0b00ff9190a4505050565b6200015282826200017e60201b62000fce1760201c565b600082815260016020908152604090912062000179918390620010526200021e821b17901c565b505050565b6000828152602081815260408083206001600160a01b038516845290915290205460ff16620000ec576000828152602081815260408083206001600160a01b03851684529091529020805460ff19166001179055620001da3390565b6001600160a01b0316816001600160a01b0316837f2f8788117e7eff1d82e926ec794901d17c78024a50270940304540a733656f0d60405160405180910390a45050565b600062000235836001600160a01b0384166200023e565b90505b92915050565b6000818152600183016020526040812054620002875750815460018181018455600084815260208082209093018490558454848252828601909352604090209190915562000238565b50600062000238565b600060208284031215620002a357600080fd5b81516001600160601b0381168114620002bb57600080fd5b9392505050565b611a3d80620002d26000396000f3fe6080604052600436106100fe5760003560e01c80635b8d02d711610095578063b2a4eea011610064578063b2a4eea0146102e4578063be9af53614610318578063ca15c8731461032b578063d547741f1461034b578063e61a70c01461036b57600080fd5b80635b8d02d7146102575780639010d07c1461028f57806391d14854146102af578063a217fddf146102cf57600080fd5b806336568abe116100d157806336568abe146101b85780633738b55a146101d857806358eb2df5146101f85780635a9cd0331461021857600080fd5b806301ffc9a7146101035780631361a3b614610138578063248a9ca31461015a5780632f2ff15d14610198575b600080fd5b34801561010f57600080fd5b5061012361011e366004611544565b610429565b60405190151581526020015b60405180910390f35b34801561014457600080fd5b5061015861015336600461156e565b610454565b005b34801561016657600080fd5b5061018a61017536600461156e565b60009081526020819052604090206001015490565b60405190815260200161012f565b3480156101a457600080fd5b506101586101b336600461159c565b610672565b3480156101c457600080fd5b506101586101d336600461159c565b61069c565b3480156101e457600080fd5b506101586101f33660046115cc565b61071a565b34801561020457600080fd5b5061018a610213366004611606565b61076f565b34801561022457600080fd5b5060055461023f90600160a01b90046001600160601b031681565b6040516001600160601b03909116815260200161012f565b34801561026357600080fd5b50600554610277906001600160a01b031681565b6040516001600160a01b03909116815260200161012f565b34801561029b57600080fd5b506102776102aa36600461163b565b610b68565b3480156102bb57600080fd5b506101236102ca36600461159c565b610b87565b3480156102db57600080fd5b5061018a600081565b3480156102f057600080fd5b5061018a7f4e9617a5e2ee64b49ea666eb545a00a6f26df1c8ca519835eb93aac8d788949281565b61015861032636600461156e565b610bb0565b34801561033757600080fd5b5061018a61034636600461156e565b610f92565b34801561035757600080fd5b5061015861036636600461159c565b610fa9565b34801561037757600080fd5b506103dd61038636600461156e565b6006602081905260009182526040909120805460018201546002830154600384015460048501546005860154959096015493956001600160a01b039384169592949184169316919060ff8082169161010090041688565b604080519889526001600160a01b0397881660208a015288019590955292851660608701529316608085015260a084019290925290151560c0830152151560e08201526101000161012f565b60006001600160e01b03198216635a05180f60e01b148061044e575061044e82611067565b92915050565b60008181526006602052604090206003015481906001600160a01b031633146104db5760405162461bcd60e51b815260206004820152602e60248201527f4d61726b6574706c6163653a2053656e646572206973206e6f742073656c6c6560448201526d72206f662074686973206974656d60901b60648201526084015b60405180910390fd5b600082815260066020526040908190206001810154600382015460029092015492516323b872dd60e01b81523060048201526001600160a01b039283166024820152604481019390935216906323b872dd90606401600060405180830381600087803b15801561054a57600080fd5b505af115801561055e573d6000803e3d6000fd5b5050506000838152600660208190526040808320918201805461ff0019166101001790556001820154600290920154905163c87b56dd60e01b81529293506001600160a01b039091169163c87b56dd916105be9160040190815260200190565b600060405180830381865afa1580156105db573d6000803e3d6000fd5b505050506040513d6000823e601f3d908101601f191682016040526106039190810190611697565b60008481526006602052604080822060028101546001909101549151939450926001600160a01b039091169186917f441ce8810cb23039fd1298c2fe1e7b82e2886a738cfc3281515eedfb7f0e60af9161066591879133918291908190611770565b60405180910390a4505050565b60008281526020819052604090206001015461068d8161109c565b61069783836110a6565b505050565b6001600160a01b038116331461070c5760405162461bcd60e51b815260206004820152602f60248201527f416363657373436f6e74726f6c3a2063616e206f6e6c792072656e6f756e636560448201526e103937b632b9903337b91039b2b63360891b60648201526084016104d2565b61071682826110c8565b5050565b7f4e9617a5e2ee64b49ea666eb545a00a6f26df1c8ca519835eb93aac8d78894926107448161109c565b506001600160a01b03166001600160601b03909116600160a01b026001600160a01b03191617600555565b6040516331a9108f60e11b8152600481018390526000908490849033906001600160a01b03841690636352211e90602401602060405180830381865afa1580156107bd573d6000803e3d6000fd5b505050506040513d601f19601f820116820180604052508101906107e191906117da565b6001600160a01b0316146108495760405162461bcd60e51b815260206004820152602960248201527f4d61726b6574706c6163653a2053656e64657220646f6573206e6f74206f776e60448201526820746865206974656d60b81b60648201526084016104d2565b600084116108ab5760405162461bcd60e51b815260206004820152602960248201527f4d61726b6574706c6163653a205072696365206d757374206265206174206c6560448201526861737420312077656960b81b60648201526084016104d2565b6108b9600380546001019055565b60006108c460035490565b9050604051806101000160405280828152602001886001600160a01b03168152602001878152602001336001600160a01b0316815260200160006001600160a01b0316815260200186815260200160011515815260200160001515815250600660008381526020019081526020016000206000820151816000015560208201518160010160006101000a8154816001600160a01b0302191690836001600160a01b031602179055506040820151816002015560608201518160030160006101000a8154816001600160a01b0302191690836001600160a01b0316021790555060808201518160040160006101000a8154816001600160a01b0302191690836001600160a01b0316021790555060a0820151816005015560c08201518160060160006101000a81548160ff02191690831515021790555060e08201518160060160016101000a81548160ff021916908315150217905550905050866001600160a01b03166323b872dd3330896040518463ffffffff1660e01b8152600401610a6c939291906001600160a01b039384168152919092166020820152604081019190915260600190565b600060405180830381600087803b158015610a8657600080fd5b505af1158015610a9a573d6000803e3d6000fd5b505060405163c87b56dd60e01b815260048101899052600092506001600160a01b038a16915063c87b56dd90602401600060405180830381865afa158015610ae6573d6000803e3d6000fd5b505050506040513d6000823e601f3d908101601f19168201604052610b0e9190810190611697565b905086886001600160a01b0316837f441ce8810cb23039fd1298c2fe1e7b82e2886a738cfc3281515eedfb7f0e60af843360008c6001604051610b559594939291906117f7565b60405180910390a4509695505050505050565b6000828152600160205260408120610b8090836110ea565b9392505050565b6000918252602082815260408084206001600160a01b0393909316845291905290205460ff1690565b610bb86110f6565b600081815260066020819052604090912001548190610100900460ff1615610c315760405162461bcd60e51b815260206004820152602660248201527f4d61726b6574706c6163653a204d61726b6574206974656d20646f65736e277460448201526508195e1a5cdd60d21b60648201526084016104d2565b60008281526006602081905260409091200154829060ff161515600114610cab5760405162461bcd60e51b815260206004820152602860248201527f4d61726b6574706c6163653a204d61726b6574206974656d206973206e6f7420604482015267666f722073616c6560c01b60648201526084016104d2565b60008381526006602052604080822060058101546001820154600290920154925163c87b56dd60e01b81526004810184905290936001600160a01b03909216929190839063c87b56dd90602401600060405180830381865afa158015610d15573d6000803e3d6000fd5b505050506040513d6000823e601f3d908101601f19168201604052610d3d9190810190611697565b6000888152600660205260409020600301549091506001600160a01b0316348514610dbf5760405162461bcd60e51b815260206004820152602c60248201527f4d61726b6574706c6163653a20506179204d61726b657420507269636520746f60448201526b08189d5e481d1a194813919560a21b60648201526084016104d2565b600088815260066020819052604091829020600480820180546001600160a01b0319163390811790915591909201805460ff1916905591516323b872dd60e01b815230918101919091526024810191909152604481018490526001600160a01b038516906323b872dd90606401600060405180830381600087803b158015610e4657600080fd5b505af1158015610e5a573d6000803e3d6000fd5b5050600554349250600091506103e890610e8490600160a01b90046001600160601b031684611876565b610e8e919061188d565b90506000610e9c82846118af565b60008c8152600660205260408082206003015490519293506001600160a01b03169183156108fc0291849190818181858888f19350505050158015610ee5573d6000803e3d6000fd5b506005546040516001600160a01b039091169083156108fc029084906000818181858888f19350505050158015610f20573d6000803e3d6000fd5b50610f2f600480546001019055565b85876001600160a01b03168c7f441ce8810cb23039fd1298c2fe1e7b82e2886a738cfc3281515eedfb7f0e60af8888338e6000604051610f739594939291906118c2565b60405180910390a450505050505050505050610f8f6001600255565b50565b600081815260016020526040812061044e9061114d565b600082815260208190526040902060010154610fc48161109c565b61069783836110c8565b610fd88282610b87565b610716576000828152602081815260408083206001600160a01b03851684529091529020805460ff1916600117905561100e3390565b6001600160a01b0316816001600160a01b0316837f2f8788117e7eff1d82e926ec794901d17c78024a50270940304540a733656f0d60405160405180910390a45050565b6000610b80836001600160a01b038416611157565b60006001600160e01b03198216637965db0b60e01b148061044e57506301ffc9a760e01b6001600160e01b031983161461044e565b610f8f81336111a6565b6110b08282610fce565b60008281526001602052604090206106979082611052565b6110d282826111ff565b60008281526001602052604090206106979082611264565b6000610b808383611279565b60028054036111475760405162461bcd60e51b815260206004820152601f60248201527f5265656e7472616e637947756172643a207265656e7472616e742063616c6c0060448201526064016104d2565b60028055565b600061044e825490565b600081815260018301602052604081205461119e5750815460018181018455600084815260208082209093018490558454848252828601909352604090209190915561044e565b50600061044e565b6111b08282610b87565b610716576111bd816112a3565b6111c88360206112b5565b6040516020016111d9929190611929565b60408051601f198184030181529082905262461bcd60e51b82526104d29160040161199e565b6112098282610b87565b15610716576000828152602081815260408083206001600160a01b0385168085529252808320805460ff1916905551339285917ff6391f5c32d9c69d2a47ea670b442974b53935d1edc7fd64eb21e047a839171b9190a45050565b6000610b80836001600160a01b038416611451565b6000826000018281548110611290576112906119b1565b9060005260206000200154905092915050565b606061044e6001600160a01b03831660145b606060006112c4836002611876565b6112cf9060026119c7565b67ffffffffffffffff8111156112e7576112e761165d565b6040519080825280601f01601f191660200182016040528015611311576020820181803683370190505b509050600360fc1b8160008151811061132c5761132c6119b1565b60200101906001600160f81b031916908160001a905350600f60fb1b8160018151811061135b5761135b6119b1565b60200101906001600160f81b031916908160001a905350600061137f846002611876565b61138a9060016119c7565b90505b6001811115611402576f181899199a1a9b1b9c1cb0b131b232b360811b85600f16601081106113be576113be6119b1565b1a60f81b8282815181106113d4576113d46119b1565b60200101906001600160f81b031916908160001a90535060049490941c936113fb816119da565b905061138d565b508315610b805760405162461bcd60e51b815260206004820181905260248201527f537472696e67733a20686578206c656e67746820696e73756666696369656e7460448201526064016104d2565b6000818152600183016020526040812054801561153a5760006114756001836118af565b8554909150600090611489906001906118af565b90508181146114ee5760008660000182815481106114a9576114a96119b1565b90600052602060002001549050808760000184815481106114cc576114cc6119b1565b6000918252602080832090910192909255918252600188019052604090208390555b85548690806114ff576114ff6119f1565b60019003818190600052602060002001600090559055856001016000868152602001908152602001600020600090556001935050505061044e565b600091505061044e565b60006020828403121561155657600080fd5b81356001600160e01b031981168114610b8057600080fd5b60006020828403121561158057600080fd5b5035919050565b6001600160a01b0381168114610f8f57600080fd5b600080604083850312156115af57600080fd5b8235915060208301356115c181611587565b809150509250929050565b600080604083850312156115df57600080fd5b82356001600160601b03811681146115f657600080fd5b915060208301356115c181611587565b60008060006060848603121561161b57600080fd5b833561162681611587565b95602085013595506040909401359392505050565b6000806040838503121561164e57600080fd5b50508035926020909101359150565b634e487b7160e01b600052604160045260246000fd5b60005b8381101561168e578181015183820152602001611676565b50506000910152565b6000602082840312156116a957600080fd5b815167ffffffffffffffff808211156116c157600080fd5b818401915084601f8301126116d557600080fd5b8151818111156116e7576116e761165d565b604051601f8201601f19908116603f0116810190838211818310171561170f5761170f61165d565b8160405282815287602084870101111561172857600080fd5b611739836020830160208801611673565b979650505050505050565b6000815180845261175c816020860160208601611673565b601f01601f19169290920160200192915050565b60c08152600061178360c0830188611744565b60018060a01b038088166020850152808716604085015250846060840152831515608084015282810360a0840152600b81526a1a5d195b54995b5bdd995960aa1b6020820152604081019150509695505050505050565b6000602082840312156117ec57600080fd5b8151610b8081611587565b60c08152600061180a60c0830188611744565b60018060a01b038088166020850152808716604085015250846060840152831515608084015282810360a0840152600a8152691a5d195b531a5cdd195960b21b6020820152604081019150509695505050505050565b634e487b7160e01b600052601160045260246000fd5b808202811582820484141761044e5761044e611860565b6000826118aa57634e487b7160e01b600052601260045260246000fd5b500490565b8181038181111561044e5761044e611860565b60c0815260006118d560c0830188611744565b60018060a01b038088166020850152808716604085015250846060840152831515608084015282810360a084015260088152676974656d53616c6560c01b6020820152604081019150509695505050505050565b7f416363657373436f6e74726f6c3a206163636f756e7420000000000000000000815260008351611961816017850160208801611673565b7001034b99036b4b9b9b4b733903937b6329607d1b6017918401918201528351611992816028840160208801611673565b01602801949350505050565b602081526000610b806020830184611744565b634e487b7160e01b600052603260045260246000fd5b8082018082111561044e5761044e611860565b6000816119e9576119e9611860565b506000190190565b634e487b7160e01b600052603160045260246000fdfea264697066735822122056be9bf8ce3053d76f7c40f9b9656c063e156917ce0cfcd4839fb012ce0d29a864736f6c63430008110033","opcodes":"PUSH1 0x80 PUSH1 0x40 MSTORE CALLVALUE DUP1 ISZERO PUSH3 0x11 JUMPI PUSH1 0x0 DUP1 REVERT JUMPDEST POP PUSH1 0x40 MLOAD PUSH3 0x1D0F CODESIZE SUB DUP1 PUSH3 0x1D0F DUP4 CODECOPY DUP2 ADD PUSH1 0x40 DUP2 SWAP1 MSTORE PUSH3 0x34 SWAP2 PUSH3 0x290 JUMP JUMPDEST PUSH1 0x1 PUSH1 0x2 SSTORE PUSH3 0x65 PUSH32 0x4E9617A5E2EE64B49EA666EB545A00A6F26DF1C8CA519835EB93AAC8D7889492 CALLER PUSH3 0xE0 JUMP JUMPDEST PUSH3 0x91 PUSH32 0x4E9617A5E2EE64B49EA666EB545A00A6F26DF1C8CA519835EB93AAC8D7889492 DUP1 PUSH3 0xF0 JUMP JUMPDEST PUSH1 0x5 DUP1 SLOAD PUSH1 0x1 PUSH1 0x1 PUSH1 0xA0 SHL SUB AND PUSH1 0x1 PUSH1 0xA0 SHL PUSH1 0x1 PUSH1 0x1 PUSH1 0x60 SHL SUB DUP5 AND MUL OR SWAP1 SSTORE PUSH3 0xB9 CALLER SWAP1 JUMP JUMPDEST PUSH1 0x5 DUP1 SLOAD PUSH1 0x1 PUSH1 0x1 PUSH1 0xA0 SHL SUB NOT AND PUSH1 0x1 PUSH1 0x1 PUSH1 0xA0 SHL SUB SWAP3 SWAP1 SWAP3 AND SWAP2 SWAP1 SWAP2 OR SWAP1 SSTORE POP PUSH3 0x2C2 JUMP JUMPDEST PUSH3 0xEC DUP3 DUP3 PUSH3 0x13B JUMP JUMPDEST POP POP JUMP JUMPDEST PUSH1 0x0 DUP3 DUP2 MSTORE PUSH1 0x20 DUP2 SWAP1 MSTORE PUSH1 0x40 DUP1 DUP3 KECCAK256 PUSH1 0x1 ADD DUP1 SLOAD SWAP1 DUP5 SWAP1 SSTORE SWAP1 MLOAD SWAP1 SWAP2 DUP4 SWAP2 DUP4 SWAP2 DUP7 SWAP2 PUSH32 0xBD79B86FFE0AB8E8776151514217CD7CACD52C909F66475C3AF44E129F0B00FF SWAP2 SWAP1 LOG4 POP POP POP JUMP JUMPDEST PUSH3 0x152 DUP3 DUP3 PUSH3 0x17E PUSH1 0x20 SHL PUSH3 0xFCE OR PUSH1 0x20 SHR JUMP JUMPDEST PUSH1 0x0 DUP3 DUP2 MSTORE PUSH1 0x1 PUSH1 0x20 SWAP1 DUP2 MSTORE PUSH1 0x40 SWAP1 SWAP2 KECCAK256 PUSH3 0x179 SWAP2 DUP4 SWAP1 PUSH3 0x1052 PUSH3 0x21E DUP3 SHL OR SWAP1 SHR JUMP JUMPDEST POP POP POP JUMP JUMPDEST PUSH1 0x0 DUP3 DUP2 MSTORE PUSH1 0x20 DUP2 DUP2 MSTORE PUSH1 0x40 DUP1 DUP4 KECCAK256 PUSH1 0x1 PUSH1 0x1 PUSH1 0xA0 SHL SUB DUP6 AND DUP5 MSTORE SWAP1 SWAP2 MSTORE SWAP1 KECCAK256 SLOAD PUSH1 0xFF AND PUSH3 0xEC JUMPI PUSH1 0x0 DUP3 DUP2 MSTORE PUSH1 0x20 DUP2 DUP2 MSTORE PUSH1 0x40 DUP1 DUP4 KECCAK256 PUSH1 0x1 PUSH1 0x1 PUSH1 0xA0 SHL SUB DUP6 AND DUP5 MSTORE SWAP1 SWAP2 MSTORE SWAP1 KECCAK256 DUP1 SLOAD PUSH1 0xFF NOT AND PUSH1 0x1 OR SWAP1 SSTORE PUSH3 0x1DA CALLER SWAP1 JUMP JUMPDEST PUSH1 0x1 PUSH1 0x1 PUSH1 0xA0 SHL SUB AND DUP2 PUSH1 0x1 PUSH1 0x1 PUSH1 0xA0 SHL SUB AND DUP4 PUSH32 0x2F8788117E7EFF1D82E926EC794901D17C78024A50270940304540A733656F0D PUSH1 0x40 MLOAD PUSH1 0x40 MLOAD DUP1 SWAP2 SUB SWAP1 LOG4 POP POP JUMP JUMPDEST PUSH1 0x0 PUSH3 0x235 DUP4 PUSH1 0x1 PUSH1 0x1 PUSH1 0xA0 SHL SUB DUP5 AND PUSH3 0x23E JUMP JUMPDEST SWAP1 POP JUMPDEST SWAP3 SWAP2 POP POP JUMP JUMPDEST PUSH1 0x0 DUP2 DUP2 MSTORE PUSH1 0x1 DUP4 ADD PUSH1 0x20 MSTORE PUSH1 0x40 DUP2 KECCAK256 SLOAD PUSH3 0x287 JUMPI POP DUP2 SLOAD PUSH1 0x1 DUP2 DUP2 ADD DUP5 SSTORE PUSH1 0x0 DUP5 DUP2 MSTORE PUSH1 0x20 DUP1 DUP3 KECCAK256 SWAP1 SWAP4 ADD DUP5 SWAP1 SSTORE DUP5 SLOAD DUP5 DUP3 MSTORE DUP3 DUP7 ADD SWAP1 SWAP4 MSTORE PUSH1 0x40 SWAP1 KECCAK256 SWAP2 SWAP1 SWAP2 SSTORE PUSH3 0x238 JUMP JUMPDEST POP PUSH1 0x0 PUSH3 0x238 JUMP JUMPDEST PUSH1 0x0 PUSH1 0x20 DUP3 DUP5 SUB SLT ISZERO PUSH3 0x2A3 JUMPI PUSH1 0x0 DUP1 REVERT JUMPDEST DUP2 MLOAD PUSH1 0x1 PUSH1 0x1 PUSH1 0x60 SHL SUB DUP2 AND DUP2 EQ PUSH3 0x2BB JUMPI PUSH1 0x0 DUP1 REVERT JUMPDEST SWAP4 SWAP3 POP POP POP JUMP JUMPDEST PUSH2 0x1A3D DUP1 PUSH3 0x2D2 PUSH1 0x0 CODECOPY PUSH1 0x0 RETURN INVALID PUSH1 0x80 PUSH1 0x40 MSTORE PUSH1 0x4 CALLDATASIZE LT PUSH2 0xFE JUMPI PUSH1 0x0 CALLDATALOAD PUSH1 0xE0 SHR DUP1 PUSH4 0x5B8D02D7 GT PUSH2 0x95 JUMPI DUP1 PUSH4 0xB2A4EEA0 GT PUSH2 0x64 JUMPI DUP1 PUSH4 0xB2A4EEA0 EQ PUSH2 0x2E4 JUMPI DUP1 PUSH4 0xBE9AF536 EQ PUSH2 0x318 JUMPI DUP1 PUSH4 0xCA15C873 EQ PUSH2 0x32B JUMPI DUP1 PUSH4 0xD547741F EQ PUSH2 0x34B JUMPI DUP1 PUSH4 0xE61A70C0 EQ PUSH2 0x36B JUMPI PUSH1 0x0 DUP1 REVERT JUMPDEST DUP1 PUSH4 0x5B8D02D7 EQ PUSH2 0x257 JUMPI DUP1 PUSH4 0x9010D07C EQ PUSH2 0x28F JUMPI DUP1 PUSH4 0x91D14854 EQ PUSH2 0x2AF JUMPI DUP1 PUSH4 0xA217FDDF EQ PUSH2 0x2CF JUMPI PUSH1 0x0 DUP1 REVERT JUMPDEST DUP1 PUSH4 0x36568ABE GT PUSH2 0xD1 JUMPI DUP1 PUSH4 0x36568ABE EQ PUSH2 0x1B8 JUMPI DUP1 PUSH4 0x3738B55A EQ PUSH2 0x1D8 JUMPI DUP1 PUSH4 0x58EB2DF5 EQ PUSH2 0x1F8 JUMPI DUP1 PUSH4 0x5A9CD033 EQ PUSH2 0x218 JUMPI PUSH1 0x0 DUP1 REVERT JUMPDEST DUP1 PUSH4 0x1FFC9A7 EQ PUSH2 0x103 JUMPI DUP1 PUSH4 0x1361A3B6 EQ PUSH2 0x138 JUMPI DUP1 PUSH4 0x248A9CA3 EQ PUSH2 0x15A JUMPI DUP1 PUSH4 0x2F2FF15D EQ PUSH2 0x198 JUMPI JUMPDEST PUSH1 0x0 DUP1 REVERT JUMPDEST CALLVALUE DUP1 ISZERO PUSH2 0x10F JUMPI PUSH1 0x0 DUP1 REVERT JUMPDEST POP PUSH2 0x123 PUSH2 0x11E CALLDATASIZE PUSH1 0x4 PUSH2 0x1544 JUMP JUMPDEST PUSH2 0x429 JUMP JUMPDEST PUSH1 0x40 MLOAD SWAP1 ISZERO ISZERO DUP2 MSTORE PUSH1 0x20 ADD JUMPDEST PUSH1 0x40 MLOAD DUP1 SWAP2 SUB SWAP1 RETURN JUMPDEST CALLVALUE DUP1 ISZERO PUSH2 0x144 JUMPI PUSH1 0x0 DUP1 REVERT JUMPDEST POP PUSH2 0x158 PUSH2 0x153 CALLDATASIZE PUSH1 0x4 PUSH2 0x156E JUMP JUMPDEST PUSH2 0x454 JUMP JUMPDEST STOP JUMPDEST CALLVALUE DUP1 ISZERO PUSH2 0x166 JUMPI PUSH1 0x0 DUP1 REVERT JUMPDEST POP PUSH2 0x18A PUSH2 0x175 CALLDATASIZE PUSH1 0x4 PUSH2 0x156E JUMP JUMPDEST PUSH1 0x0 SWAP1 DUP2 MSTORE PUSH1 0x20 DUP2 SWAP1 MSTORE PUSH1 0x40 SWAP1 KECCAK256 PUSH1 0x1 ADD SLOAD SWAP1 JUMP JUMPDEST PUSH1 0x40 MLOAD SWAP1 DUP2 MSTORE PUSH1 0x20 ADD PUSH2 0x12F JUMP JUMPDEST CALLVALUE DUP1 ISZERO PUSH2 0x1A4 JUMPI PUSH1 0x0 DUP1 REVERT JUMPDEST POP PUSH2 0x158 PUSH2 0x1B3 CALLDATASIZE PUSH1 0x4 PUSH2 0x159C JUMP JUMPDEST PUSH2 0x672 JUMP JUMPDEST CALLVALUE DUP1 ISZERO PUSH2 0x1C4 JUMPI PUSH1 0x0 DUP1 REVERT JUMPDEST POP PUSH2 0x158 PUSH2 0x1D3 CALLDATASIZE PUSH1 0x4 PUSH2 0x159C JUMP JUMPDEST PUSH2 0x69C JUMP JUMPDEST CALLVALUE DUP1 ISZERO PUSH2 0x1E4 JUMPI PUSH1 0x0 DUP1 REVERT JUMPDEST POP PUSH2 0x158 PUSH2 0x1F3 CALLDATASIZE PUSH1 0x4 PUSH2 0x15CC JUMP JUMPDEST PUSH2 0x71A JUMP JUMPDEST CALLVALUE DUP1 ISZERO PUSH2 0x204 JUMPI PUSH1 0x0 DUP1 REVERT JUMPDEST POP PUSH2 0x18A PUSH2 0x213 CALLDATASIZE PUSH1 0x4 PUSH2 0x1606 JUMP JUMPDEST PUSH2 0x76F JUMP JUMPDEST CALLVALUE DUP1 ISZERO PUSH2 0x224 JUMPI PUSH1 0x0 DUP1 REVERT JUMPDEST POP PUSH1 0x5 SLOAD PUSH2 0x23F SWAP1 PUSH1 0x1 PUSH1 0xA0 SHL SWAP1 DIV PUSH1 0x1 PUSH1 0x1 PUSH1 0x60 SHL SUB AND DUP2 JUMP JUMPDEST PUSH1 0x40 MLOAD PUSH1 0x1 PUSH1 0x1 PUSH1 0x60 SHL SUB SWAP1 SWAP2 AND DUP2 MSTORE PUSH1 0x20 ADD PUSH2 0x12F JUMP JUMPDEST CALLVALUE DUP1 ISZERO PUSH2 0x263 JUMPI PUSH1 0x0 DUP1 REVERT JUMPDEST POP PUSH1 0x5 SLOAD PUSH2 0x277 SWAP1 PUSH1 0x1 PUSH1 0x1 PUSH1 0xA0 SHL SUB AND DUP2 JUMP JUMPDEST PUSH1 0x40 MLOAD PUSH1 0x1 PUSH1 0x1 PUSH1 0xA0 SHL SUB SWAP1 SWAP2 AND DUP2 MSTORE PUSH1 0x20 ADD PUSH2 0x12F JUMP JUMPDEST CALLVALUE DUP1 ISZERO PUSH2 0x29B JUMPI PUSH1 0x0 DUP1 REVERT JUMPDEST POP PUSH2 0x277 PUSH2 0x2AA CALLDATASIZE PUSH1 0x4 PUSH2 0x163B JUMP JUMPDEST PUSH2 0xB68 JUMP JUMPDEST CALLVALUE DUP1 ISZERO PUSH2 0x2BB JUMPI PUSH1 0x0 DUP1 REVERT JUMPDEST POP PUSH2 0x123 PUSH2 0x2CA CALLDATASIZE PUSH1 0x4 PUSH2 0x159C JUMP JUMPDEST PUSH2 0xB87 JUMP JUMPDEST CALLVALUE DUP1 ISZERO PUSH2 0x2DB JUMPI PUSH1 0x0 DUP1 REVERT JUMPDEST POP PUSH2 0x18A PUSH1 0x0 DUP2 JUMP JUMPDEST CALLVALUE DUP1 ISZERO PUSH2 0x2F0 JUMPI PUSH1 0x0 DUP1 REVERT JUMPDEST POP PUSH2 0x18A PUSH32 0x4E9617A5E2EE64B49EA666EB545A00A6F26DF1C8CA519835EB93AAC8D7889492 DUP2 JUMP JUMPDEST PUSH2 0x158 PUSH2 0x326 CALLDATASIZE PUSH1 0x4 PUSH2 0x156E JUMP JUMPDEST PUSH2 0xBB0 JUMP JUMPDEST CALLVALUE DUP1 ISZERO PUSH2 0x337 JUMPI PUSH1 0x0 DUP1 REVERT JUMPDEST POP PUSH2 0x18A PUSH2 0x346 CALLDATASIZE PUSH1 0x4 PUSH2 0x156E JUMP JUMPDEST PUSH2 0xF92 JUMP JUMPDEST CALLVALUE DUP1 ISZERO PUSH2 0x357 JUMPI PUSH1 0x0 DUP1 REVERT JUMPDEST POP PUSH2 0x158 PUSH2 0x366 CALLDATASIZE PUSH1 0x4 PUSH2 0x159C JUMP JUMPDEST PUSH2 0xFA9 JUMP JUMPDEST CALLVALUE DUP1 ISZERO PUSH2 0x377 JUMPI PUSH1 0x0 DUP1 REVERT JUMPDEST POP PUSH2 0x3DD PUSH2 0x386 CALLDATASIZE PUSH1 0x4 PUSH2 0x156E JUMP JUMPDEST PUSH1 0x6 PUSH1 0x20 DUP2 SWAP1 MSTORE PUSH1 0x0 SWAP2 DUP3 MSTORE PUSH1 0x40 SWAP1 SWAP2 KECCAK256 DUP1 SLOAD PUSH1 0x1 DUP3 ADD SLOAD PUSH1 0x2 DUP4 ADD SLOAD PUSH1 0x3 DUP5 ADD SLOAD PUSH1 0x4 DUP6 ADD SLOAD PUSH1 0x5 DUP7 ADD SLOAD SWAP6 SWAP1 SWAP7 ADD SLOAD SWAP4 SWAP6 PUSH1 0x1 PUSH1 0x1 PUSH1 0xA0 SHL SUB SWAP4 DUP5 AND SWAP6 SWAP3 SWAP5 SWAP2 DUP5 AND SWAP4 AND SWAP2 SWAP1 PUSH1 0xFF DUP1 DUP3 AND SWAP2 PUSH2 0x100 SWAP1 DIV AND DUP9 JUMP JUMPDEST PUSH1 0x40 DUP1 MLOAD SWAP9 DUP10 MSTORE PUSH1 0x1 PUSH1 0x1 PUSH1 0xA0 SHL SUB SWAP8 DUP9 AND PUSH1 0x20 DUP11 ADD MSTORE DUP9 ADD SWAP6 SWAP1 SWAP6 MSTORE SWAP3 DUP6 AND PUSH1 0x60 DUP8 ADD MSTORE SWAP4 AND PUSH1 0x80 DUP6 ADD MSTORE PUSH1 0xA0 DUP5 ADD SWAP3 SWAP1 SWAP3 MSTORE SWAP1 ISZERO ISZERO PUSH1 0xC0 DUP4 ADD MSTORE ISZERO ISZERO PUSH1 0xE0 DUP3 ADD MSTORE PUSH2 0x100 ADD PUSH2 0x12F JUMP JUMPDEST PUSH1 0x0 PUSH1 0x1 PUSH1 0x1 PUSH1 0xE0 SHL SUB NOT DUP3 AND PUSH4 0x5A05180F PUSH1 0xE0 SHL EQ DUP1 PUSH2 0x44E JUMPI POP PUSH2 0x44E DUP3 PUSH2 0x1067 JUMP JUMPDEST SWAP3 SWAP2 POP POP JUMP JUMPDEST PUSH1 0x0 DUP2 DUP2 MSTORE PUSH1 0x6 PUSH1 0x20 MSTORE PUSH1 0x40 SWAP1 KECCAK256 PUSH1 0x3 ADD SLOAD DUP2 SWAP1 PUSH1 0x1 PUSH1 0x1 PUSH1 0xA0 SHL SUB AND CALLER EQ PUSH2 0x4DB JUMPI PUSH1 0x40 MLOAD PUSH3 0x461BCD PUSH1 0xE5 SHL DUP2 MSTORE PUSH1 0x20 PUSH1 0x4 DUP3 ADD MSTORE PUSH1 0x2E PUSH1 0x24 DUP3 ADD MSTORE PUSH32 0x4D61726B6574706C6163653A2053656E646572206973206E6F742073656C6C65 PUSH1 0x44 DUP3 ADD MSTORE PUSH14 0x72206F662074686973206974656D PUSH1 0x90 SHL PUSH1 0x64 DUP3 ADD MSTORE PUSH1 0x84 ADD JUMPDEST PUSH1 0x40 MLOAD DUP1 SWAP2 SUB SWAP1 REVERT JUMPDEST PUSH1 0x0 DUP3 DUP2 MSTORE PUSH1 0x6 PUSH1 0x20 MSTORE PUSH1 0x40 SWAP1 DUP2 SWAP1 KECCAK256 PUSH1 0x1 DUP2 ADD SLOAD PUSH1 0x3 DUP3 ADD SLOAD PUSH1 0x2 SWAP1 SWAP3 ADD SLOAD SWAP3 MLOAD PUSH4 0x23B872DD PUSH1 0xE0 SHL DUP2 MSTORE ADDRESS PUSH1 0x4 DUP3 ADD MSTORE PUSH1 0x1 PUSH1 0x1 PUSH1 0xA0 SHL SUB SWAP3 DUP4 AND PUSH1 0x24 DUP3 ADD MSTORE PUSH1 0x44 DUP2 ADD SWAP4 SWAP1 SWAP4 MSTORE AND SWAP1 PUSH4 0x23B872DD SWAP1 PUSH1 0x64 ADD PUSH1 0x0 PUSH1 0x40 MLOAD DUP1 DUP4 SUB DUP2 PUSH1 0x0 DUP8 DUP1 EXTCODESIZE ISZERO DUP1 ISZERO PUSH2 0x54A JUMPI PUSH1 0x0 DUP1 REVERT JUMPDEST POP GAS CALL ISZERO DUP1 ISZERO PUSH2 0x55E JUMPI RETURNDATASIZE PUSH1 0x0 DUP1 RETURNDATACOPY RETURNDATASIZE PUSH1 0x0 REVERT JUMPDEST POP POP POP PUSH1 0x0 DUP4 DUP2 MSTORE PUSH1 0x6 PUSH1 0x20 DUP2 SWAP1 MSTORE PUSH1 0x40 DUP1 DUP4 KECCAK256 SWAP2 DUP3 ADD DUP1 SLOAD PUSH2 0xFF00 NOT AND PUSH2 0x100 OR SWAP1 SSTORE PUSH1 0x1 DUP3 ADD SLOAD PUSH1 0x2 SWAP1 SWAP3 ADD SLOAD SWAP1 MLOAD PUSH4 0xC87B56DD PUSH1 0xE0 SHL DUP2 MSTORE SWAP3 SWAP4 POP PUSH1 0x1 PUSH1 0x1 PUSH1 0xA0 SHL SUB SWAP1 SWAP2 AND SWAP2 PUSH4 0xC87B56DD SWAP2 PUSH2 0x5BE SWAP2 PUSH1 0x4 ADD SWAP1 DUP2 MSTORE PUSH1 0x20 ADD SWAP1 JUMP JUMPDEST PUSH1 0x0 PUSH1 0x40 MLOAD DUP1 DUP4 SUB DUP2 DUP7 GAS STATICCALL ISZERO DUP1 ISZERO PUSH2 0x5DB JUMPI RETURNDATASIZE PUSH1 0x0 DUP1 RETURNDATACOPY RETURNDATASIZE PUSH1 0x0 REVERT JUMPDEST POP POP POP POP PUSH1 0x40 MLOAD RETURNDATASIZE PUSH1 0x0 DUP3 RETURNDATACOPY PUSH1 0x1F RETURNDATASIZE SWAP1 DUP2 ADD PUSH1 0x1F NOT AND DUP3 ADD PUSH1 0x40 MSTORE PUSH2 0x603 SWAP2 SWAP1 DUP2 ADD SWAP1 PUSH2 0x1697 JUMP JUMPDEST PUSH1 0x0 DUP5 DUP2 MSTORE PUSH1 0x6 PUSH1 0x20 MSTORE PUSH1 0x40 DUP1 DUP3 KECCAK256 PUSH1 0x2 DUP2 ADD SLOAD PUSH1 0x1 SWAP1 SWAP2 ADD SLOAD SWAP2 MLOAD SWAP4 SWAP5 POP SWAP3 PUSH1 0x1 PUSH1 0x1 PUSH1 0xA0 SHL SUB SWAP1 SWAP2 AND SWAP2 DUP7 SWAP2 PUSH32 0x441CE8810CB23039FD1298C2FE1E7B82E2886A738CFC3281515EEDFB7F0E60AF SWAP2 PUSH2 0x665 SWAP2 DUP8 SWAP2 CALLER SWAP2 DUP3 SWAP2 SWAP1 DUP2 SWAP1 PUSH2 0x1770 JUMP JUMPDEST PUSH1 0x40 MLOAD DUP1 SWAP2 SUB SWAP1 LOG4 POP POP POP JUMP JUMPDEST PUSH1 0x0 DUP3 DUP2 MSTORE PUSH1 0x20 DUP2 SWAP1 MSTORE PUSH1 0x40 SWAP1 KECCAK256 PUSH1 0x1 ADD SLOAD PUSH2 0x68D DUP2 PUSH2 0x109C JUMP JUMPDEST PUSH2 0x697 DUP4 DUP4 PUSH2 0x10A6 JUMP JUMPDEST POP POP POP JUMP JUMPDEST PUSH1 0x1 PUSH1 0x1 PUSH1 0xA0 SHL SUB DUP2 AND CALLER EQ PUSH2 0x70C JUMPI PUSH1 0x40 MLOAD PUSH3 0x461BCD PUSH1 0xE5 SHL DUP2 MSTORE PUSH1 0x20 PUSH1 0x4 DUP3 ADD MSTORE PUSH1 0x2F PUSH1 0x24 DUP3 ADD MSTORE PUSH32 0x416363657373436F6E74726F6C3A2063616E206F6E6C792072656E6F756E6365 PUSH1 0x44 DUP3 ADD MSTORE PUSH15 0x103937B632B9903337B91039B2B633 PUSH1 0x89 SHL PUSH1 0x64 DUP3 ADD MSTORE PUSH1 0x84 ADD PUSH2 0x4D2 JUMP JUMPDEST PUSH2 0x716 DUP3 DUP3 PUSH2 0x10C8 JUMP JUMPDEST POP POP JUMP JUMPDEST PUSH32 0x4E9617A5E2EE64B49EA666EB545A00A6F26DF1C8CA519835EB93AAC8D7889492 PUSH2 0x744 DUP2 PUSH2 0x109C JUMP JUMPDEST POP PUSH1 0x1 PUSH1 0x1 PUSH1 0xA0 SHL SUB AND PUSH1 0x1 PUSH1 0x1 PUSH1 0x60 SHL SUB SWAP1 SWAP2 AND PUSH1 0x1 PUSH1 0xA0 SHL MUL PUSH1 0x1 PUSH1 0x1 PUSH1 0xA0 SHL SUB NOT AND OR PUSH1 0x5 SSTORE JUMP JUMPDEST PUSH1 0x40 MLOAD PUSH4 0x31A9108F PUSH1 0xE1 SHL DUP2 MSTORE PUSH1 0x4 DUP2 ADD DUP4 SWAP1 MSTORE PUSH1 0x0 SWAP1 DUP5 SWAP1 DUP5 SWAP1 CALLER SWAP1 PUSH1 0x1 PUSH1 0x1 PUSH1 0xA0 SHL SUB DUP5 AND SWAP1 PUSH4 0x6352211E SWAP1 PUSH1 0x24 ADD PUSH1 0x20 PUSH1 0x40 MLOAD DUP1 DUP4 SUB DUP2 DUP7 GAS STATICCALL ISZERO DUP1 ISZERO PUSH2 0x7BD JUMPI RETURNDATASIZE PUSH1 0x0 DUP1 RETURNDATACOPY RETURNDATASIZE PUSH1 0x0 REVERT JUMPDEST POP POP POP POP PUSH1 0x40 MLOAD RETURNDATASIZE PUSH1 0x1F NOT PUSH1 0x1F DUP3 ADD AND DUP3 ADD DUP1 PUSH1 0x40 MSTORE POP DUP2 ADD SWAP1 PUSH2 0x7E1 SWAP2 SWAP1 PUSH2 0x17DA JUMP JUMPDEST PUSH1 0x1 PUSH1 0x1 PUSH1 0xA0 SHL SUB AND EQ PUSH2 0x849 JUMPI PUSH1 0x40 MLOAD PUSH3 0x461BCD PUSH1 0xE5 SHL DUP2 MSTORE PUSH1 0x20 PUSH1 0x4 DUP3 ADD MSTORE PUSH1 0x29 PUSH1 0x24 DUP3 ADD MSTORE PUSH32 0x4D61726B6574706C6163653A2053656E64657220646F6573206E6F74206F776E PUSH1 0x44 DUP3 ADD MSTORE PUSH9 0x20746865206974656D PUSH1 0xB8 SHL PUSH1 0x64 DUP3 ADD MSTORE PUSH1 0x84 ADD PUSH2 0x4D2 JUMP JUMPDEST PUSH1 0x0 DUP5 GT PUSH2 0x8AB JUMPI PUSH1 0x40 MLOAD PUSH3 0x461BCD PUSH1 0xE5 SHL DUP2 MSTORE PUSH1 0x20 PUSH1 0x4 DUP3 ADD MSTORE PUSH1 0x29 PUSH1 0x24 DUP3 ADD MSTORE PUSH32 0x4D61726B6574706C6163653A205072696365206D757374206265206174206C65 PUSH1 0x44 DUP3 ADD MSTORE PUSH9 0x617374203120776569 PUSH1 0xB8 SHL PUSH1 0x64 DUP3 ADD MSTORE PUSH1 0x84 ADD PUSH2 0x4D2 JUMP JUMPDEST PUSH2 0x8B9 PUSH1 0x3 DUP1 SLOAD PUSH1 0x1 ADD SWAP1 SSTORE JUMP JUMPDEST PUSH1 0x0 PUSH2 0x8C4 PUSH1 0x3 SLOAD SWAP1 JUMP JUMPDEST SWAP1 POP PUSH1 0x40 MLOAD DUP1 PUSH2 0x100 ADD PUSH1 0x40 MSTORE DUP1 DUP3 DUP2 MSTORE PUSH1 0x20 ADD DUP9 PUSH1 0x1 PUSH1 0x1 PUSH1 0xA0 SHL SUB AND DUP2 MSTORE PUSH1 0x20 ADD DUP8 DUP2 MSTORE PUSH1 0x20 ADD CALLER PUSH1 0x1 PUSH1 0x1 PUSH1 0xA0 SHL SUB AND DUP2 MSTORE PUSH1 0x20 ADD PUSH1 0x0 PUSH1 0x1 PUSH1 0x1 PUSH1 0xA0 SHL SUB AND DUP2 MSTORE PUSH1 0x20 ADD DUP7 DUP2 MSTORE PUSH1 0x20 ADD PUSH1 0x1 ISZERO ISZERO DUP2 MSTORE PUSH1 0x20 ADD PUSH1 0x0 ISZERO ISZERO DUP2 MSTORE POP PUSH1 0x6 PUSH1 0x0 DUP4 DUP2 MSTORE PUSH1 0x20 ADD SWAP1 DUP2 MSTORE PUSH1 0x20 ADD PUSH1 0x0 KECCAK256 PUSH1 0x0 DUP3 ADD MLOAD DUP2 PUSH1 0x0 ADD SSTORE PUSH1 0x20 DUP3 ADD MLOAD DUP2 PUSH1 0x1 ADD PUSH1 0x0 PUSH2 0x100 EXP DUP2 SLOAD DUP2 PUSH1 0x1 PUSH1 0x1 PUSH1 0xA0 SHL SUB MUL NOT AND SWAP1 DUP4 PUSH1 0x1 PUSH1 0x1 PUSH1 0xA0 SHL SUB AND MUL OR SWAP1 SSTORE POP PUSH1 0x40 DUP3 ADD MLOAD DUP2 PUSH1 0x2 ADD SSTORE PUSH1 0x60 DUP3 ADD MLOAD DUP2 PUSH1 0x3 ADD PUSH1 0x0 PUSH2 0x100 EXP DUP2 SLOAD DUP2 PUSH1 0x1 PUSH1 0x1 PUSH1 0xA0 SHL SUB MUL NOT AND SWAP1 DUP4 PUSH1 0x1 PUSH1 0x1 PUSH1 0xA0 SHL SUB AND MUL OR SWAP1 SSTORE POP PUSH1 0x80 DUP3 ADD MLOAD DUP2 PUSH1 0x4 ADD PUSH1 0x0 PUSH2 0x100 EXP DUP2 SLOAD DUP2 PUSH1 0x1 PUSH1 0x1 PUSH1 0xA0 SHL SUB MUL NOT AND SWAP1 DUP4 PUSH1 0x1 PUSH1 0x1 PUSH1 0xA0 SHL SUB AND MUL OR SWAP1 SSTORE POP PUSH1 0xA0 DUP3 ADD MLOAD DUP2 PUSH1 0x5 ADD SSTORE PUSH1 0xC0 DUP3 ADD MLOAD DUP2 PUSH1 0x6 ADD PUSH1 0x0 PUSH2 0x100 EXP DUP2 SLOAD DUP2 PUSH1 0xFF MUL NOT AND SWAP1 DUP4 ISZERO ISZERO MUL OR SWAP1 SSTORE POP PUSH1 0xE0 DUP3 ADD MLOAD DUP2 PUSH1 0x6 ADD PUSH1 0x1 PUSH2 0x100 EXP DUP2 SLOAD DUP2 PUSH1 0xFF MUL NOT AND SWAP1 DUP4 ISZERO ISZERO MUL OR SWAP1 SSTORE POP SWAP1 POP POP DUP7 PUSH1 0x1 PUSH1 0x1 PUSH1 0xA0 SHL SUB AND PUSH4 0x23B872DD CALLER ADDRESS DUP10 PUSH1 0x40 MLOAD DUP5 PUSH4 0xFFFFFFFF AND PUSH1 0xE0 SHL DUP2 MSTORE PUSH1 0x4 ADD PUSH2 0xA6C SWAP4 SWAP3 SWAP2 SWAP1 PUSH1 0x1 PUSH1 0x1 PUSH1 0xA0 SHL SUB SWAP4 DUP5 AND DUP2 MSTORE SWAP2 SWAP1 SWAP3 AND PUSH1 0x20 DUP3 ADD MSTORE PUSH1 0x40 DUP2 ADD SWAP2 SWAP1 SWAP2 MSTORE PUSH1 0x60 ADD SWAP1 JUMP JUMPDEST PUSH1 0x0 PUSH1 0x40 MLOAD DUP1 DUP4 SUB DUP2 PUSH1 0x0 DUP8 DUP1 EXTCODESIZE ISZERO DUP1 ISZERO PUSH2 0xA86 JUMPI PUSH1 0x0 DUP1 REVERT JUMPDEST POP GAS CALL ISZERO DUP1 ISZERO PUSH2 0xA9A JUMPI RETURNDATASIZE PUSH1 0x0 DUP1 RETURNDATACOPY RETURNDATASIZE PUSH1 0x0 REVERT JUMPDEST POP POP PUSH1 0x40 MLOAD PUSH4 0xC87B56DD PUSH1 0xE0 SHL DUP2 MSTORE PUSH1 0x4 DUP2 ADD DUP10 SWAP1 MSTORE PUSH1 0x0 SWAP3 POP PUSH1 0x1 PUSH1 0x1 PUSH1 0xA0 SHL SUB DUP11 AND SWAP2 POP PUSH4 0xC87B56DD SWAP1 PUSH1 0x24 ADD PUSH1 0x0 PUSH1 0x40 MLOAD DUP1 DUP4 SUB DUP2 DUP7 GAS STATICCALL ISZERO DUP1 ISZERO PUSH2 0xAE6 JUMPI RETURNDATASIZE PUSH1 0x0 DUP1 RETURNDATACOPY RETURNDATASIZE PUSH1 0x0 REVERT JUMPDEST POP POP POP POP PUSH1 0x40 MLOAD RETURNDATASIZE PUSH1 0x0 DUP3 RETURNDATACOPY PUSH1 0x1F RETURNDATASIZE SWAP1 DUP2 ADD PUSH1 0x1F NOT AND DUP3 ADD PUSH1 0x40 MSTORE PUSH2 0xB0E SWAP2 SWAP1 DUP2 ADD SWAP1 PUSH2 0x1697 JUMP JUMPDEST SWAP1 POP DUP7 DUP9 PUSH1 0x1 PUSH1 0x1 PUSH1 0xA0 SHL SUB AND DUP4 PUSH32 0x441CE8810CB23039FD1298C2FE1E7B82E2886A738CFC3281515EEDFB7F0E60AF DUP5 CALLER PUSH1 0x0 DUP13 PUSH1 0x1 PUSH1 0x40 MLOAD PUSH2 0xB55 SWAP6 SWAP5 SWAP4 SWAP3 SWAP2 SWAP1 PUSH2 0x17F7 JUMP JUMPDEST PUSH1 0x40 MLOAD DUP1 SWAP2 SUB SWAP1 LOG4 POP SWAP7 SWAP6 POP POP POP POP POP POP JUMP JUMPDEST PUSH1 0x0 DUP3 DUP2 MSTORE PUSH1 0x1 PUSH1 0x20 MSTORE PUSH1 0x40 DUP2 KECCAK256 PUSH2 0xB80 SWAP1 DUP4 PUSH2 0x10EA JUMP JUMPDEST SWAP4 SWAP3 POP POP POP JUMP JUMPDEST PUSH1 0x0 SWAP2 DUP3 MSTORE PUSH1 0x20 DUP3 DUP2 MSTORE PUSH1 0x40 DUP1 DUP5 KECCAK256 PUSH1 0x1 PUSH1 0x1 PUSH1 0xA0 SHL SUB SWAP4 SWAP1 SWAP4 AND DUP5 MSTORE SWAP2 SWAP1 MSTORE SWAP1 KECCAK256 SLOAD PUSH1 0xFF AND SWAP1 JUMP JUMPDEST PUSH2 0xBB8 PUSH2 0x10F6 JUMP JUMPDEST PUSH1 0x0 DUP2 DUP2 MSTORE PUSH1 0x6 PUSH1 0x20 DUP2 SWAP1 MSTORE PUSH1 0x40 SWAP1 SWAP2 KECCAK256 ADD SLOAD DUP2 SWAP1 PUSH2 0x100 SWAP1 DIV PUSH1 0xFF AND ISZERO PUSH2 0xC31 JUMPI PUSH1 0x40 MLOAD PUSH3 0x461BCD PUSH1 0xE5 SHL DUP2 MSTORE PUSH1 0x20 PUSH1 0x4 DUP3 ADD MSTORE PUSH1 0x26 PUSH1 0x24 DUP3 ADD MSTORE PUSH32 0x4D61726B6574706C6163653A204D61726B6574206974656D20646F65736E2774 PUSH1 0x44 DUP3 ADD MSTORE PUSH6 0x8195E1A5CDD PUSH1 0xD2 SHL PUSH1 0x64 DUP3 ADD MSTORE PUSH1 0x84 ADD PUSH2 0x4D2 JUMP JUMPDEST PUSH1 0x0 DUP3 DUP2 MSTORE PUSH1 0x6 PUSH1 0x20 DUP2 SWAP1 MSTORE PUSH1 0x40 SWAP1 SWAP2 KECCAK256 ADD SLOAD DUP3 SWAP1 PUSH1 0xFF AND ISZERO ISZERO PUSH1 0x1 EQ PUSH2 0xCAB JUMPI PUSH1 0x40 MLOAD PUSH3 0x461BCD PUSH1 0xE5 SHL DUP2 MSTORE PUSH1 0x20 PUSH1 0x4 DUP3 ADD MSTORE PUSH1 0x28 PUSH1 0x24 DUP3 ADD MSTORE PUSH32 0x4D61726B6574706C6163653A204D61726B6574206974656D206973206E6F7420 PUSH1 0x44 DUP3 ADD MSTORE PUSH8 0x666F722073616C65 PUSH1 0xC0 SHL PUSH1 0x64 DUP3 ADD MSTORE PUSH1 0x84 ADD PUSH2 0x4D2 JUMP JUMPDEST PUSH1 0x0 DUP4 DUP2 MSTORE PUSH1 0x6 PUSH1 0x20 MSTORE PUSH1 0x40 DUP1 DUP3 KECCAK256 PUSH1 0x5 DUP2 ADD SLOAD PUSH1 0x1 DUP3 ADD SLOAD PUSH1 0x2 SWAP1 SWAP3 ADD SLOAD SWAP3 MLOAD PUSH4 0xC87B56DD PUSH1 0xE0 SHL DUP2 MSTORE PUSH1 0x4 DUP2 ADD DUP5 SWAP1 MSTORE SWAP1 SWAP4 PUSH1 0x1 PUSH1 0x1 PUSH1 0xA0 SHL SUB SWAP1 SWAP3 AND SWAP3 SWAP2 SWAP1 DUP4 SWAP1 PUSH4 0xC87B56DD SWAP1 PUSH1 0x24 ADD PUSH1 0x0 PUSH1 0x40 MLOAD DUP1 DUP4 SUB DUP2 DUP7 GAS STATICCALL ISZERO DUP1 ISZERO PUSH2 0xD15 JUMPI RETURNDATASIZE PUSH1 0x0 DUP1 RETURNDATACOPY RETURNDATASIZE PUSH1 0x0 REVERT JUMPDEST POP POP POP POP PUSH1 0x40 MLOAD RETURNDATASIZE PUSH1 0x0 DUP3 RETURNDATACOPY PUSH1 0x1F RETURNDATASIZE SWAP1 DUP2 ADD PUSH1 0x1F NOT AND DUP3 ADD PUSH1 0x40 MSTORE PUSH2 0xD3D SWAP2 SWAP1 DUP2 ADD SWAP1 PUSH2 0x1697 JUMP JUMPDEST PUSH1 0x0 DUP9 DUP2 MSTORE PUSH1 0x6 PUSH1 0x20 MSTORE PUSH1 0x40 SWAP1 KECCAK256 PUSH1 0x3 ADD SLOAD SWAP1 SWAP2 POP PUSH1 0x1 PUSH1 0x1 PUSH1 0xA0 SHL SUB AND CALLVALUE DUP6 EQ PUSH2 0xDBF JUMPI PUSH1 0x40 MLOAD PUSH3 0x461BCD PUSH1 0xE5 SHL DUP2 MSTORE PUSH1 0x20 PUSH1 0x4 DUP3 ADD MSTORE PUSH1 0x2C PUSH1 0x24 DUP3 ADD MSTORE PUSH32 0x4D61726B6574706C6163653A20506179204D61726B657420507269636520746F PUSH1 0x44 DUP3 ADD MSTORE PUSH12 0x8189D5E481D1A1948139195 PUSH1 0xA2 SHL PUSH1 0x64 DUP3 ADD MSTORE PUSH1 0x84 ADD PUSH2 0x4D2 JUMP JUMPDEST PUSH1 0x0 DUP9 DUP2 MSTORE PUSH1 0x6 PUSH1 0x20 DUP2 SWAP1 MSTORE PUSH1 0x40 SWAP2 DUP3 SWAP1 KECCAK256 PUSH1 0x4 DUP1 DUP3 ADD DUP1 SLOAD PUSH1 0x1 PUSH1 0x1 PUSH1 0xA0 SHL SUB NOT AND CALLER SWAP1 DUP2 OR SWAP1 SWAP2 SSTORE SWAP2 SWAP1 SWAP3 ADD DUP1 SLOAD PUSH1 0xFF NOT AND SWAP1 SSTORE SWAP2 MLOAD PUSH4 0x23B872DD PUSH1 0xE0 SHL DUP2 MSTORE ADDRESS SWAP2 DUP2 ADD SWAP2 SWAP1 SWAP2 MSTORE PUSH1 0x24 DUP2 ADD SWAP2 SWAP1 SWAP2 MSTORE PUSH1 0x44 DUP2 ADD DUP5 SWAP1 MSTORE PUSH1 0x1 PUSH1 0x1 PUSH1 0xA0 SHL SUB DUP6 AND SWAP1 PUSH4 0x23B872DD SWAP1 PUSH1 0x64 ADD PUSH1 0x0 PUSH1 0x40 MLOAD DUP1 DUP4 SUB DUP2 PUSH1 0x0 DUP8 DUP1 EXTCODESIZE ISZERO DUP1 ISZERO PUSH2 0xE46 JUMPI PUSH1 0x0 DUP1 REVERT JUMPDEST POP GAS CALL ISZERO DUP1 ISZERO PUSH2 0xE5A JUMPI RETURNDATASIZE PUSH1 0x0 DUP1 RETURNDATACOPY RETURNDATASIZE PUSH1 0x0 REVERT JUMPDEST POP POP PUSH1 0x5 SLOAD CALLVALUE SWAP3 POP PUSH1 0x0 SWAP2 POP PUSH2 0x3E8 SWAP1 PUSH2 0xE84 SWAP1 PUSH1 0x1 PUSH1 0xA0 SHL SWAP1 DIV PUSH1 0x1 PUSH1 0x1 PUSH1 0x60 SHL SUB AND DUP5 PUSH2 0x1876 JUMP JUMPDEST PUSH2 0xE8E SWAP2 SWAP1 PUSH2 0x188D JUMP JUMPDEST SWAP1 POP PUSH1 0x0 PUSH2 0xE9C DUP3 DUP5 PUSH2 0x18AF JUMP JUMPDEST PUSH1 0x0 DUP13 DUP2 MSTORE PUSH1 0x6 PUSH1 0x20 MSTORE PUSH1 0x40 DUP1 DUP3 KECCAK256 PUSH1 0x3 ADD SLOAD SWAP1 MLOAD SWAP3 SWAP4 POP PUSH1 0x1 PUSH1 0x1 PUSH1 0xA0 SHL SUB AND SWAP2 DUP4 ISZERO PUSH2 0x8FC MUL SWAP2 DUP5 SWAP2 SWAP1 DUP2 DUP2 DUP2 DUP6 DUP9 DUP9 CALL SWAP4 POP POP POP POP ISZERO DUP1 ISZERO PUSH2 0xEE5 JUMPI RETURNDATASIZE PUSH1 0x0 DUP1 RETURNDATACOPY RETURNDATASIZE PUSH1 0x0 REVERT JUMPDEST POP PUSH1 0x5 SLOAD PUSH1 0x40 MLOAD PUSH1 0x1 PUSH1 0x1 PUSH1 0xA0 SHL SUB SWAP1 SWAP2 AND SWAP1 DUP4 ISZERO PUSH2 0x8FC MUL SWAP1 DUP5 SWAP1 PUSH1 0x0 DUP2 DUP2 DUP2 DUP6 DUP9 DUP9 CALL SWAP4 POP POP POP POP ISZERO DUP1 ISZERO PUSH2 0xF20 JUMPI RETURNDATASIZE PUSH1 0x0 DUP1 RETURNDATACOPY RETURNDATASIZE PUSH1 0x0 REVERT JUMPDEST POP PUSH2 0xF2F PUSH1 0x4 DUP1 SLOAD PUSH1 0x1 ADD SWAP1 SSTORE JUMP JUMPDEST DUP6 DUP8 PUSH1 0x1 PUSH1 0x1 PUSH1 0xA0 SHL SUB AND DUP13 PUSH32 0x441CE8810CB23039FD1298C2FE1E7B82E2886A738CFC3281515EEDFB7F0E60AF DUP9 DUP9 CALLER DUP15 PUSH1 0x0 PUSH1 0x40 MLOAD PUSH2 0xF73 SWAP6 SWAP5 SWAP4 SWAP3 SWAP2 SWAP1 PUSH2 0x18C2 JUMP JUMPDEST PUSH1 0x40 MLOAD DUP1 SWAP2 SUB SWAP1 LOG4 POP POP POP POP POP POP POP POP POP POP PUSH2 0xF8F PUSH1 0x1 PUSH1 0x2 SSTORE JUMP JUMPDEST POP JUMP JUMPDEST PUSH1 0x0 DUP2 DUP2 MSTORE PUSH1 0x1 PUSH1 0x20 MSTORE PUSH1 0x40 DUP2 KECCAK256 PUSH2 0x44E SWAP1 PUSH2 0x114D JUMP JUMPDEST PUSH1 0x0 DUP3 DUP2 MSTORE PUSH1 0x20 DUP2 SWAP1 MSTORE PUSH1 0x40 SWAP1 KECCAK256 PUSH1 0x1 ADD SLOAD PUSH2 0xFC4 DUP2 PUSH2 0x109C JUMP JUMPDEST PUSH2 0x697 DUP4 DUP4 PUSH2 0x10C8 JUMP JUMPDEST PUSH2 0xFD8 DUP3 DUP3 PUSH2 0xB87 JUMP JUMPDEST PUSH2 0x716 JUMPI PUSH1 0x0 DUP3 DUP2 MSTORE PUSH1 0x20 DUP2 DUP2 MSTORE PUSH1 0x40 DUP1 DUP4 KECCAK256 PUSH1 0x1 PUSH1 0x1 PUSH1 0xA0 SHL SUB DUP6 AND DUP5 MSTORE SWAP1 SWAP2 MSTORE SWAP1 KECCAK256 DUP1 SLOAD PUSH1 0xFF NOT AND PUSH1 0x1 OR SWAP1 SSTORE PUSH2 0x100E CALLER SWAP1 JUMP JUMPDEST PUSH1 0x1 PUSH1 0x1 PUSH1 0xA0 SHL SUB AND DUP2 PUSH1 0x1 PUSH1 0x1 PUSH1 0xA0 SHL SUB AND DUP4 PUSH32 0x2F8788117E7EFF1D82E926EC794901D17C78024A50270940304540A733656F0D PUSH1 0x40 MLOAD PUSH1 0x40 MLOAD DUP1 SWAP2 SUB SWAP1 LOG4 POP POP JUMP JUMPDEST PUSH1 0x0 PUSH2 0xB80 DUP4 PUSH1 0x1 PUSH1 0x1 PUSH1 0xA0 SHL SUB DUP5 AND PUSH2 0x1157 JUMP JUMPDEST PUSH1 0x0 PUSH1 0x1 PUSH1 0x1 PUSH1 0xE0 SHL SUB NOT DUP3 AND PUSH4 0x7965DB0B PUSH1 0xE0 SHL EQ DUP1 PUSH2 0x44E JUMPI POP PUSH4 0x1FFC9A7 PUSH1 0xE0 SHL PUSH1 0x1 PUSH1 0x1 PUSH1 0xE0 SHL SUB NOT DUP4 AND EQ PUSH2 0x44E JUMP JUMPDEST PUSH2 0xF8F DUP2 CALLER PUSH2 0x11A6 JUMP JUMPDEST PUSH2 0x10B0 DUP3 DUP3 PUSH2 0xFCE JUMP JUMPDEST PUSH1 0x0 DUP3 DUP2 MSTORE PUSH1 0x1 PUSH1 0x20 MSTORE PUSH1 0x40 SWAP1 KECCAK256 PUSH2 0x697 SWAP1 DUP3 PUSH2 0x1052 JUMP JUMPDEST PUSH2 0x10D2 DUP3 DUP3 PUSH2 0x11FF JUMP JUMPDEST PUSH1 0x0 DUP3 DUP2 MSTORE PUSH1 0x1 PUSH1 0x20 MSTORE PUSH1 0x40 SWAP1 KECCAK256 PUSH2 0x697 SWAP1 DUP3 PUSH2 0x1264 JUMP JUMPDEST PUSH1 0x0 PUSH2 0xB80 DUP4 DUP4 PUSH2 0x1279 JUMP JUMPDEST PUSH1 0x2 DUP1 SLOAD SUB PUSH2 0x1147 JUMPI PUSH1 0x40 MLOAD PUSH3 0x461BCD PUSH1 0xE5 SHL DUP2 MSTORE PUSH1 0x20 PUSH1 0x4 DUP3 ADD MSTORE PUSH1 0x1F PUSH1 0x24 DUP3 ADD MSTORE PUSH32 0x5265656E7472616E637947756172643A207265656E7472616E742063616C6C00 PUSH1 0x44 DUP3 ADD MSTORE PUSH1 0x64 ADD PUSH2 0x4D2 JUMP JUMPDEST PUSH1 0x2 DUP1 SSTORE JUMP JUMPDEST PUSH1 0x0 PUSH2 0x44E DUP3 SLOAD SWAP1 JUMP JUMPDEST PUSH1 0x0 DUP2 DUP2 MSTORE PUSH1 0x1 DUP4 ADD PUSH1 0x20 MSTORE PUSH1 0x40 DUP2 KECCAK256 SLOAD PUSH2 0x119E JUMPI POP DUP2 SLOAD PUSH1 0x1 DUP2 DUP2 ADD DUP5 SSTORE PUSH1 0x0 DUP5 DUP2 MSTORE PUSH1 0x20 DUP1 DUP3 KECCAK256 SWAP1 SWAP4 ADD DUP5 SWAP1 SSTORE DUP5 SLOAD DUP5 DUP3 MSTORE DUP3 DUP7 ADD SWAP1 SWAP4 MSTORE PUSH1 0x40 SWAP1 KECCAK256 SWAP2 SWAP1 SWAP2 SSTORE PUSH2 0x44E JUMP JUMPDEST POP PUSH1 0x0 PUSH2 0x44E JUMP JUMPDEST PUSH2 0x11B0 DUP3 DUP3 PUSH2 0xB87 JUMP JUMPDEST PUSH2 0x716 JUMPI PUSH2 0x11BD DUP2 PUSH2 0x12A3 JUMP JUMPDEST PUSH2 0x11C8 DUP4 PUSH1 0x20 PUSH2 0x12B5 JUMP JUMPDEST PUSH1 0x40 MLOAD PUSH1 0x20 ADD PUSH2 0x11D9 SWAP3 SWAP2 SWAP1 PUSH2 0x1929 JUMP JUMPDEST PUSH1 0x40 DUP1 MLOAD PUSH1 0x1F NOT DUP2 DUP5 SUB ADD DUP2 MSTORE SWAP1 DUP3 SWAP1 MSTORE PUSH3 0x461BCD PUSH1 0xE5 SHL DUP3 MSTORE PUSH2 0x4D2 SWAP2 PUSH1 0x4 ADD PUSH2 0x199E JUMP JUMPDEST PUSH2 0x1209 DUP3 DUP3 PUSH2 0xB87 JUMP JUMPDEST ISZERO PUSH2 0x716 JUMPI PUSH1 0x0 DUP3 DUP2 MSTORE PUSH1 0x20 DUP2 DUP2 MSTORE PUSH1 0x40 DUP1 DUP4 KECCAK256 PUSH1 0x1 PUSH1 0x1 PUSH1 0xA0 SHL SUB DUP6 AND DUP1 DUP6 MSTORE SWAP3 MSTORE DUP1 DUP4 KECCAK256 DUP1 SLOAD PUSH1 0xFF NOT AND SWAP1 SSTORE MLOAD CALLER SWAP3 DUP6 SWAP2 PUSH32 0xF6391F5C32D9C69D2A47EA670B442974B53935D1EDC7FD64EB21E047A839171B SWAP2 SWAP1 LOG4 POP POP JUMP JUMPDEST PUSH1 0x0 PUSH2 0xB80 DUP4 PUSH1 0x1 PUSH1 0x1 PUSH1 0xA0 SHL SUB DUP5 AND PUSH2 0x1451 JUMP JUMPDEST PUSH1 0x0 DUP3 PUSH1 0x0 ADD DUP3 DUP2 SLOAD DUP2 LT PUSH2 0x1290 JUMPI PUSH2 0x1290 PUSH2 0x19B1 JUMP JUMPDEST SWAP1 PUSH1 0x0 MSTORE PUSH1 0x20 PUSH1 0x0 KECCAK256 ADD SLOAD SWAP1 POP SWAP3 SWAP2 POP POP JUMP JUMPDEST PUSH1 0x60 PUSH2 0x44E PUSH1 0x1 PUSH1 0x1 PUSH1 0xA0 SHL SUB DUP4 AND PUSH1 0x14 JUMPDEST PUSH1 0x60 PUSH1 0x0 PUSH2 0x12C4 DUP4 PUSH1 0x2 PUSH2 0x1876 JUMP JUMPDEST PUSH2 0x12CF SWAP1 PUSH1 0x2 PUSH2 0x19C7 JUMP JUMPDEST PUSH8 0xFFFFFFFFFFFFFFFF DUP2 GT ISZERO PUSH2 0x12E7 JUMPI PUSH2 0x12E7 PUSH2 0x165D JUMP JUMPDEST PUSH1 0x40 MLOAD SWAP1 DUP1 DUP3 MSTORE DUP1 PUSH1 0x1F ADD PUSH1 0x1F NOT AND PUSH1 0x20 ADD DUP3 ADD PUSH1 0x40 MSTORE DUP1 ISZERO PUSH2 0x1311 JUMPI PUSH1 0x20 DUP3 ADD DUP2 DUP1 CALLDATASIZE DUP4 CALLDATACOPY ADD SWAP1 POP JUMPDEST POP SWAP1 POP PUSH1 0x3 PUSH1 0xFC SHL DUP2 PUSH1 0x0 DUP2 MLOAD DUP2 LT PUSH2 0x132C JUMPI PUSH2 0x132C PUSH2 0x19B1 JUMP JUMPDEST PUSH1 0x20 ADD ADD SWAP1 PUSH1 0x1 PUSH1 0x1 PUSH1 0xF8 SHL SUB NOT AND SWAP1 DUP2 PUSH1 0x0 BYTE SWAP1 MSTORE8 POP PUSH1 0xF PUSH1 0xFB SHL DUP2 PUSH1 0x1 DUP2 MLOAD DUP2 LT PUSH2 0x135B JUMPI PUSH2 0x135B PUSH2 0x19B1 JUMP JUMPDEST PUSH1 0x20 ADD ADD SWAP1 PUSH1 0x1 PUSH1 0x1 PUSH1 0xF8 SHL SUB NOT AND SWAP1 DUP2 PUSH1 0x0 BYTE SWAP1 MSTORE8 POP PUSH1 0x0 PUSH2 0x137F DUP5 PUSH1 0x2 PUSH2 0x1876 JUMP JUMPDEST PUSH2 0x138A SWAP1 PUSH1 0x1 PUSH2 0x19C7 JUMP JUMPDEST SWAP1 POP JUMPDEST PUSH1 0x1 DUP2 GT ISZERO PUSH2 0x1402 JUMPI PUSH16 0x181899199A1A9B1B9C1CB0B131B232B3 PUSH1 0x81 SHL DUP6 PUSH1 0xF AND PUSH1 0x10 DUP2 LT PUSH2 0x13BE JUMPI PUSH2 0x13BE PUSH2 0x19B1 JUMP JUMPDEST BYTE PUSH1 0xF8 SHL DUP3 DUP3 DUP2 MLOAD DUP2 LT PUSH2 0x13D4 JUMPI PUSH2 0x13D4 PUSH2 0x19B1 JUMP JUMPDEST PUSH1 0x20 ADD ADD SWAP1 PUSH1 0x1 PUSH1 0x1 PUSH1 0xF8 SHL SUB NOT AND SWAP1 DUP2 PUSH1 0x0 BYTE SWAP1 MSTORE8 POP PUSH1 0x4 SWAP5 SWAP1 SWAP5 SHR SWAP4 PUSH2 0x13FB DUP2 PUSH2 0x19DA JUMP JUMPDEST SWAP1 POP PUSH2 0x138D JUMP JUMPDEST POP DUP4 ISZERO PUSH2 0xB80 JUMPI PUSH1 0x40 MLOAD PUSH3 0x461BCD PUSH1 0xE5 SHL DUP2 MSTORE PUSH1 0x20 PUSH1 0x4 DUP3 ADD DUP2 SWAP1 MSTORE PUSH1 0x24 DUP3 ADD MSTORE PUSH32 0x537472696E67733A20686578206C656E67746820696E73756666696369656E74 PUSH1 0x44 DUP3 ADD MSTORE PUSH1 0x64 ADD PUSH2 0x4D2 JUMP JUMPDEST PUSH1 0x0 DUP2 DUP2 MSTORE PUSH1 0x1 DUP4 ADD PUSH1 0x20 MSTORE PUSH1 0x40 DUP2 KECCAK256 SLOAD DUP1 ISZERO PUSH2 0x153A JUMPI PUSH1 0x0 PUSH2 0x1475 PUSH1 0x1 DUP4 PUSH2 0x18AF JUMP JUMPDEST DUP6 SLOAD SWAP1 SWAP2 POP PUSH1 0x0 SWAP1 PUSH2 0x1489 SWAP1 PUSH1 0x1 SWAP1 PUSH2 0x18AF JUMP JUMPDEST SWAP1 POP DUP2 DUP2 EQ PUSH2 0x14EE JUMPI PUSH1 0x0 DUP7 PUSH1 0x0 ADD DUP3 DUP2 SLOAD DUP2 LT PUSH2 0x14A9 JUMPI PUSH2 0x14A9 PUSH2 0x19B1 JUMP JUMPDEST SWAP1 PUSH1 0x0 MSTORE PUSH1 0x20 PUSH1 0x0 KECCAK256 ADD SLOAD SWAP1 POP DUP1 DUP8 PUSH1 0x0 ADD DUP5 DUP2 SLOAD DUP2 LT PUSH2 0x14CC JUMPI PUSH2 0x14CC PUSH2 0x19B1 JUMP JUMPDEST PUSH1 0x0 SWAP2 DUP3 MSTORE PUSH1 0x20 DUP1 DUP4 KECCAK256 SWAP1 SWAP2 ADD SWAP3 SWAP1 SWAP3 SSTORE SWAP2 DUP3 MSTORE PUSH1 0x1 DUP9 ADD SWAP1 MSTORE PUSH1 0x40 SWAP1 KECCAK256 DUP4 SWAP1 SSTORE JUMPDEST DUP6 SLOAD DUP7 SWAP1 DUP1 PUSH2 0x14FF JUMPI PUSH2 0x14FF PUSH2 0x19F1 JUMP JUMPDEST PUSH1 0x1 SWAP1 SUB DUP2 DUP2 SWAP1 PUSH1 0x0 MSTORE PUSH1 0x20 PUSH1 0x0 KECCAK256 ADD PUSH1 0x0 SWAP1 SSTORE SWAP1 SSTORE DUP6 PUSH1 0x1 ADD PUSH1 0x0 DUP7 DUP2 MSTORE PUSH1 0x20 ADD SWAP1 DUP2 MSTORE PUSH1 0x20 ADD PUSH1 0x0 KECCAK256 PUSH1 0x0 SWAP1 SSTORE PUSH1 0x1 SWAP4 POP POP POP POP PUSH2 0x44E JUMP JUMPDEST PUSH1 0x0 SWAP2 POP POP PUSH2 0x44E JUMP JUMPDEST PUSH1 0x0 PUSH1 0x20 DUP3 DUP5 SUB SLT ISZERO PUSH2 0x1556 JUMPI PUSH1 0x0 DUP1 REVERT JUMPDEST DUP2 CALLDATALOAD PUSH1 0x1 PUSH1 0x1 PUSH1 0xE0 SHL SUB NOT DUP2 AND DUP2 EQ PUSH2 0xB80 JUMPI PUSH1 0x0 DUP1 REVERT JUMPDEST PUSH1 0x0 PUSH1 0x20 DUP3 DUP5 SUB SLT ISZERO PUSH2 0x1580 JUMPI PUSH1 0x0 DUP1 REVERT JUMPDEST POP CALLDATALOAD SWAP2 SWAP1 POP JUMP JUMPDEST PUSH1 0x1 PUSH1 0x1 PUSH1 0xA0 SHL SUB DUP2 AND DUP2 EQ PUSH2 0xF8F JUMPI PUSH1 0x0 DUP1 REVERT JUMPDEST PUSH1 0x0 DUP1 PUSH1 0x40 DUP4 DUP6 SUB SLT ISZERO PUSH2 0x15AF JUMPI PUSH1 0x0 DUP1 REVERT JUMPDEST DUP3 CALLDATALOAD SWAP2 POP PUSH1 0x20 DUP4 ADD CALLDATALOAD PUSH2 0x15C1 DUP2 PUSH2 0x1587 JUMP JUMPDEST DUP1 SWAP2 POP POP SWAP3 POP SWAP3 SWAP1 POP JUMP JUMPDEST PUSH1 0x0 DUP1 PUSH1 0x40 DUP4 DUP6 SUB SLT ISZERO PUSH2 0x15DF JUMPI PUSH1 0x0 DUP1 REVERT JUMPDEST DUP3 CALLDATALOAD PUSH1 0x1 PUSH1 0x1 PUSH1 0x60 SHL SUB DUP2 AND DUP2 EQ PUSH2 0x15F6 JUMPI PUSH1 0x0 DUP1 REVERT JUMPDEST SWAP2 POP PUSH1 0x20 DUP4 ADD CALLDATALOAD PUSH2 0x15C1 DUP2 PUSH2 0x1587 JUMP JUMPDEST PUSH1 0x0 DUP1 PUSH1 0x0 PUSH1 0x60 DUP5 DUP7 SUB SLT ISZERO PUSH2 0x161B JUMPI PUSH1 0x0 DUP1 REVERT JUMPDEST DUP4 CALLDATALOAD PUSH2 0x1626 DUP2 PUSH2 0x1587 JUMP JUMPDEST SWAP6 PUSH1 0x20 DUP6 ADD CALLDATALOAD SWAP6 POP PUSH1 0x40 SWAP1 SWAP5 ADD CALLDATALOAD SWAP4 SWAP3 POP POP POP JUMP JUMPDEST PUSH1 0x0 DUP1 PUSH1 0x40 DUP4 DUP6 SUB SLT ISZERO PUSH2 0x164E JUMPI PUSH1 0x0 DUP1 REVERT JUMPDEST POP POP DUP1 CALLDATALOAD SWAP3 PUSH1 0x20 SWAP1 SWAP2 ADD CALLDATALOAD SWAP2 POP JUMP JUMPDEST PUSH4 0x4E487B71 PUSH1 0xE0 SHL PUSH1 0x0 MSTORE PUSH1 0x41 PUSH1 0x4 MSTORE PUSH1 0x24 PUSH1 0x0 REVERT JUMPDEST PUSH1 0x0 JUMPDEST DUP4 DUP2 LT ISZERO PUSH2 0x168E JUMPI DUP2 DUP2 ADD MLOAD DUP4 DUP3 ADD MSTORE PUSH1 0x20 ADD PUSH2 0x1676 JUMP JUMPDEST POP POP PUSH1 0x0 SWAP2 ADD MSTORE JUMP JUMPDEST PUSH1 0x0 PUSH1 0x20 DUP3 DUP5 SUB SLT ISZERO PUSH2 0x16A9 JUMPI PUSH1 0x0 DUP1 REVERT JUMPDEST DUP2 MLOAD PUSH8 0xFFFFFFFFFFFFFFFF DUP1 DUP3 GT ISZERO PUSH2 0x16C1 JUMPI PUSH1 0x0 DUP1 REVERT JUMPDEST DUP2 DUP5 ADD SWAP2 POP DUP5 PUSH1 0x1F DUP4 ADD SLT PUSH2 0x16D5 JUMPI PUSH1 0x0 DUP1 REVERT JUMPDEST DUP2 MLOAD DUP2 DUP2 GT ISZERO PUSH2 0x16E7 JUMPI PUSH2 0x16E7 PUSH2 0x165D JUMP JUMPDEST PUSH1 0x40 MLOAD PUSH1 0x1F DUP3 ADD PUSH1 0x1F NOT SWAP1 DUP2 AND PUSH1 0x3F ADD AND DUP2 ADD SWAP1 DUP4 DUP3 GT DUP2 DUP4 LT OR ISZERO PUSH2 0x170F JUMPI PUSH2 0x170F PUSH2 0x165D JUMP JUMPDEST DUP2 PUSH1 0x40 MSTORE DUP3 DUP2 MSTORE DUP8 PUSH1 0x20 DUP5 DUP8 ADD ADD GT ISZERO PUSH2 0x1728 JUMPI PUSH1 0x0 DUP1 REVERT JUMPDEST PUSH2 0x1739 DUP4 PUSH1 0x20 DUP4 ADD PUSH1 0x20 DUP9 ADD PUSH2 0x1673 JUMP JUMPDEST SWAP8 SWAP7 POP POP POP POP POP POP POP JUMP JUMPDEST PUSH1 0x0 DUP2 MLOAD DUP1 DUP5 MSTORE PUSH2 0x175C DUP2 PUSH1 0x20 DUP7 ADD PUSH1 0x20 DUP7 ADD PUSH2 0x1673 JUMP JUMPDEST PUSH1 0x1F ADD PUSH1 0x1F NOT AND SWAP3 SWAP1 SWAP3 ADD PUSH1 0x20 ADD SWAP3 SWAP2 POP POP JUMP JUMPDEST PUSH1 0xC0 DUP2 MSTORE PUSH1 0x0 PUSH2 0x1783 PUSH1 0xC0 DUP4 ADD DUP9 PUSH2 0x1744 JUMP JUMPDEST PUSH1 0x1 DUP1 PUSH1 0xA0 SHL SUB DUP1 DUP9 AND PUSH1 0x20 DUP6 ADD MSTORE DUP1 DUP8 AND PUSH1 0x40 DUP6 ADD MSTORE POP DUP5 PUSH1 0x60 DUP5 ADD MSTORE DUP4 ISZERO ISZERO PUSH1 0x80 DUP5 ADD MSTORE DUP3 DUP2 SUB PUSH1 0xA0 DUP5 ADD MSTORE PUSH1 0xB DUP2 MSTORE PUSH11 0x1A5D195B54995B5BDD9959 PUSH1 0xAA SHL PUSH1 0x20 DUP3 ADD MSTORE PUSH1 0x40 DUP2 ADD SWAP2 POP POP SWAP7 SWAP6 POP POP POP POP POP POP JUMP JUMPDEST PUSH1 0x0 PUSH1 0x20 DUP3 DUP5 SUB SLT ISZERO PUSH2 0x17EC JUMPI PUSH1 0x0 DUP1 REVERT JUMPDEST DUP2 MLOAD PUSH2 0xB80 DUP2 PUSH2 0x1587 JUMP JUMPDEST PUSH1 0xC0 DUP2 MSTORE PUSH1 0x0 PUSH2 0x180A PUSH1 0xC0 DUP4 ADD DUP9 PUSH2 0x1744 JUMP JUMPDEST PUSH1 0x1 DUP1 PUSH1 0xA0 SHL SUB DUP1 DUP9 AND PUSH1 0x20 DUP6 ADD MSTORE DUP1 DUP8 AND PUSH1 0x40 DUP6 ADD MSTORE POP DUP5 PUSH1 0x60 DUP5 ADD MSTORE DUP4 ISZERO ISZERO PUSH1 0x80 DUP5 ADD MSTORE DUP3 DUP2 SUB PUSH1 0xA0 DUP5 ADD MSTORE PUSH1 0xA DUP2 MSTORE PUSH10 0x1A5D195B531A5CDD1959 PUSH1 0xB2 SHL PUSH1 0x20 DUP3 ADD MSTORE PUSH1 0x40 DUP2 ADD SWAP2 POP POP SWAP7 SWAP6 POP POP POP POP POP POP JUMP JUMPDEST PUSH4 0x4E487B71 PUSH1 0xE0 SHL PUSH1 0x0 MSTORE PUSH1 0x11 PUSH1 0x4 MSTORE PUSH1 0x24 PUSH1 0x0 REVERT JUMPDEST DUP1 DUP3 MUL DUP2 ISZERO DUP3 DUP3 DIV DUP5 EQ OR PUSH2 0x44E JUMPI PUSH2 0x44E PUSH2 0x1860 JUMP JUMPDEST PUSH1 0x0 DUP3 PUSH2 0x18AA JUMPI PUSH4 0x4E487B71 PUSH1 0xE0 SHL PUSH1 0x0 MSTORE PUSH1 0x12 PUSH1 0x4 MSTORE PUSH1 0x24 PUSH1 0x0 REVERT JUMPDEST POP DIV SWAP1 JUMP JUMPDEST DUP2 DUP2 SUB DUP2 DUP2 GT ISZERO PUSH2 0x44E JUMPI PUSH2 0x44E PUSH2 0x1860 JUMP JUMPDEST PUSH1 0xC0 DUP2 MSTORE PUSH1 0x0 PUSH2 0x18D5 PUSH1 0xC0 DUP4 ADD DUP9 PUSH2 0x1744 JUMP JUMPDEST PUSH1 0x1 DUP1 PUSH1 0xA0 SHL SUB DUP1 DUP9 AND PUSH1 0x20 DUP6 ADD MSTORE DUP1 DUP8 AND PUSH1 0x40 DUP6 ADD MSTORE POP DUP5 PUSH1 0x60 DUP5 ADD MSTORE DUP4 ISZERO ISZERO PUSH1 0x80 DUP5 ADD MSTORE DUP3 DUP2 SUB PUSH1 0xA0 DUP5 ADD MSTORE PUSH1 0x8 DUP2 MSTORE PUSH8 0x6974656D53616C65 PUSH1 0xC0 SHL PUSH1 0x20 DUP3 ADD MSTORE PUSH1 0x40 DUP2 ADD SWAP2 POP POP SWAP7 SWAP6 POP POP POP POP POP POP JUMP JUMPDEST PUSH32 0x416363657373436F6E74726F6C3A206163636F756E7420000000000000000000 DUP2 MSTORE PUSH1 0x0 DUP4 MLOAD PUSH2 0x1961 DUP2 PUSH1 0x17 DUP6 ADD PUSH1 0x20 DUP9 ADD PUSH2 0x1673 JUMP JUMPDEST PUSH17 0x1034B99036B4B9B9B4B733903937B6329 PUSH1 0x7D SHL PUSH1 0x17 SWAP2 DUP5 ADD SWAP2 DUP3 ADD MSTORE DUP4 MLOAD PUSH2 0x1992 DUP2 PUSH1 0x28 DUP5 ADD PUSH1 0x20 DUP9 ADD PUSH2 0x1673 JUMP JUMPDEST ADD PUSH1 0x28 ADD SWAP5 SWAP4 POP POP POP POP JUMP JUMPDEST PUSH1 0x20 DUP2 MSTORE PUSH1 0x0 PUSH2 0xB80 PUSH1 0x20 DUP4 ADD DUP5 PUSH2 0x1744 JUMP JUMPDEST PUSH4 0x4E487B71 PUSH1 0xE0 SHL PUSH1 0x0 MSTORE PUSH1 0x32 PUSH1 0x4 MSTORE PUSH1 0x24 PUSH1 0x0 REVERT JUMPDEST DUP1 DUP3 ADD DUP1 DUP3 GT ISZERO PUSH2 0x44E JUMPI PUSH2 0x44E PUSH2 0x1860 JUMP JUMPDEST PUSH1 0x0 DUP2 PUSH2 0x19E9 JUMPI PUSH2 0x19E9 PUSH2 0x1860 JUMP JUMPDEST POP PUSH1 0x0 NOT ADD SWAP1 JUMP JUMPDEST PUSH4 0x4E487B71 PUSH1 0xE0 SHL PUSH1 0x0 MSTORE PUSH1 0x31 PUSH1 0x4 MSTORE PUSH1 0x24 PUSH1 0x0 REVERT INVALID LOG2 PUSH5 0x6970667358 0x22 SLT KECCAK256 JUMP 0xBE SWAP12 0xF8 0xCE ADDRESS MSTORE8 0xD7 PUSH16 0x7C40F9B9656C063E156917CE0CFCD483 SWAP16 0xB0 SLT 0xCE 0xD 0x29 0xA8 PUSH5 0x736F6C6343 STOP ADDMOD GT STOP CALLER "},"methodIdentifiers":{"DEFAULT_ADMIN_ROLE()":"a217fddf","MARKETPLACE_ADMIN_ROLE()":"b2a4eea0","changeFeeAndPayoutAddress(uint96,address)":"3738b55a","createMarketItem(address,uint256,uint256)":"58eb2df5","createMarketSale(uint256)":"be9af536","getRoleAdmin(bytes32)":"248a9ca3","getRoleMember(bytes32,uint256)":"9010d07c","getRoleMemberCount(bytes32)":"ca15c873","grantRole(bytes32,address)":"2f2ff15d","hasRole(bytes32,address)":"91d14854","idToMarketItem(uint256)":"e61a70c0","payoutAddress()":"5b8d02d7","platformFeeBasisPoint()":"5a9cd033","removeFromSale(uint256)":"1361a3b6","renounceRole(bytes32,address)":"36568abe","revokeRole(bytes32,address)":"d547741f","supportsInterface(bytes4)":"01ffc9a7"}}}}}